:107800000C94343C0C94463C0C94463C0C94463C02
:107810000C94463C0C94463C0C94463C0C94463CE0
:107820000C94463C0C94463C0C94463C0C94463CD0
:107830000C94463C0C94463C0C94463C0C94463CC0
:107840000C94463C0C94463C0C94463C0C94463CB0
:107850000C94463C0C94463C0C94463C0C94463CA0
:107860000C94463C0C94463C11241FBECFEFD8E04C
:10787000DEBFCDBF11E0A0E0B1E001C01D92AA3C87
:10788000B107E1F70E94A53C0C94443F0C94003CE6
:10789000E0E6F0E088E180831082EE27FF2709947C
:1078A0000895CF93DF93362FDA01622FA89583E0F6
:1078B000FA0187BFE89507B600FCFDCF832F972F0D
:1078C0009C01E901AD0171E0888190E0398120E0FF
:1078D000822B932B2296FA010C0177BFE895112495
:1078E0004E5F5F4F625081F785E0FD0187BFE895ED
:1078F00007B600FCFDCF81E180935700E895FFFFBC
:107900000000DF91CF910895E0E6F0E098E19083E8
:1079100080830895A89508950E943D3F803239F0F4
:1079200088E1809360008EE080936000FFCF84E167
:107930000E94353F08951F93182F0E943D3F11501C
:10794000E1F70E948C3C1F9108952F923F924F9235
:107950005F926F927F928F929F92AF92BF92DF92CF
:10796000EF92FF920F931F93DF93CF93CDB7DEB7C4
:10797000C050D1400FB6F894DEBF0FBECDBF84B764
:1079800014BE98E190936000109260008D7039F001
:107990009093600010926000EE27FF2709942D98C5
:1079A000259A4098389A419A399880E49CE9019741
:1079B000F1F72D9A31998BC080E197E220E931E00F
:1079C000F9013197F1F70197D9F72D98319908C04E
:1079D00088E18093600010926000EE27FF270994F1
:1079E0000E94F83D88E18093600010926000EE24D0
:1079F000FF243E010894611C711C61E8862E912CC5
:107A00008C0E9D1E51E0252E352E2C0E3D1E40E481
:107A1000442E4FE1542E30E2A32E80EA0E94FC3D1A
:107A20008823D9F7BF2C8F2D0E94223EDE2C8E2D6D
:107A30000E94223E81EA0E94FC3D00E010E00E948C
:107A4000343EF301E00FF11F8083F801EE0DFF1DBE
:107A5000E491D401A00FB11FEC930F5F1F4F0038CA
:107A6000110569F70E94223F80EA0E94FC3D8B2DA0
:107A70000E94223E8D2D0E94223E8401F8018191B8
:107A80008F010E94223E02151305C1F70E94223F7A
:107A900080E0B301A70120E80E94513CC201019798
:107AA000F1F785B18A2585B9F0E8EF16FFE6FF0604
:107AB00029F080E890E0E80EF91EAFCF319BFECFB1
:107AC00088E18093600088E080936000FFCF0E948F
:107AD000263F88E1809360008EE080936000A89547
:107AE0008824992428E1622E9EE0792E0E943D3F51
:107AF000813489F40E943D3F182F0E948C3C12383B
:107B000011F482E005C0113811F486E001C083E071
:107B10000E94353F69C0823411F484E103C085348A
:107B200021F485E00E949B3C5FC0853581F40E9472
:107B30003D3F082F10E00E943D3FB82EAA240A299D
:107B40001B29000F111F0E948C3C48014DC0863537
:107B500029F484E00E949B3C80E0DACF8436E1F493
:107B60000E943D3F0E943D3FE82E0E943D3FD82E9F
:107B7000FE2C02E011E00E943D3FF80181938F014D
:107B8000FA94C9F70E948C3C8D2D62E071E0A4014B
:107B90002E2D0E94513C28C0843791F40E943D3F15
:107BA0000E943D3F182F0E943D3F0E948C3C740173
:107BB000F70185917F010E94353F1150C9F714C02C
:107BC000853751F40E948C3C8EE10E94353F85E957
:107BD0000E94353F8FE09CCF813521F46092600098
:107BE000709260000E948C3C80E10E94353F7ECF05
:107BF00088E48093B8000895982F1092BC0084EA1E
:107C00008093BC008091BC0087FFFCCF8091B900BD
:107C1000887F883011F081E008959093BB0084E85C
:107C20008093BC008091BC0087FFFCCF9091B9008D
:107C3000987F983111F480E0089580E0903409F045
:107C400081E008958093BB0084E88093BC0080911C
:107C5000BC0087FFFCCF8091B90090E0887F88321C
:107C600009F091E0892F089584EC8093BC00809105
:107C7000BC0087FFFCCF8091BB00089584E880930F
:107C8000BC008091BC0087FFFCCF8091BB000895B1
:107C9000EF92FF920F931F93CF93DF937B018A01A3
:107CA0000E94FC3D8823A1F4C0E0D0E009C0F701A8
:107CB000EC0FFD1F80810E94223E882349F421960B
:107CC000C017D107A0F384E98093BC0080E001C015
:107CD00081E0DF91CF911F910F91FF90EF90089578
:107CE0000F931F93CF93DF93EB018A0181600E9472
:107CF000FC3D882311F081E029C020E030E0A8019C
:107D00004150504094EC0EC09093BC008091BC0058
:107D100087FFFCCF8091BB00FE01E20FF31F808341
:107D20002F5F3F4F2417350778F384E88093BC001A
:107D30008091BC0087FFFCCF8091BB00C00FD11F9A
:107D40002197888384E98093BC0080E0DF91CF9104
:107D50001F910F910895CF92DF92EF92FF921F93A0
:107D6000CF93DF93162F6A0179010E94FC3D88238F
:107D7000B9F4812F0E94223EC0E0D0E009C0F60194
:107D8000EC0FFD1F80810E94223E882349F421963A
:107D9000CE15DF05A0F384E98093BC0080E001C02C
:107DA00081E0DF91CF911F91FF90EF90DF90CF9016
:107DB0000895EF92FF920F931F93CF93DF93182FA5
:107DC000062FEA0179010E94FC3D882399F5802F56
:107DD0000E94223E812F81600E94FC3D882351F544
:107DE00020E030E0A7014150504094EC0EC0909349
:107DF000BC008091BC0087FFFCCF8091BB00FE01DE
:107E0000E20FF31F80832F5F3F4F2417350778F36E
:107E100084E88093BC008091BC0087FFFCCF8091F8
:107E2000BB00CE0DDF1D2197888384E98093BC00C1
:107E300080E001C081E0DF91CF911F910F91FF9011
:107E4000EF90089584E98093BC0008951092C500D6
:107E500080E18093C40088E18093C10086E0809334
:107E6000C20082E08093C0000895982F8091C000E6
:107E700085FFFCCF9093C60008958091C00087FFD6
:0C7E8000FCCF8091C6000895F894FFCF5D
:040000030000780081
:00000001FF
